:020000040800F2
:1000000080060020CD010008AB030008A303000810
:10001000A70300087F0200084D0800080000000048
:10002000000000000000000000000000D1030008F4
:100030008302000800000000AD030008E50400088A
:10004000E7010008E7010008E7010008E7010008F0
:10005000E7010008E7010008E7010008E7010008E0
:10006000E7010008E7010008E7010008E7010008D0
:10007000E7010008E7010008E7010008E7010008C0
:10008000E7010008E7010008E7010008E7010008B0
:10009000E7010008E7010008E7010008E7010008A0
:1000A000E7010008E701000855050008E70100081E
:1000B000E7010008E7010008E7010008E701000880
:1000C000E7010008E7010008E7010008E701000870
:1000D000E7010008E7010008E7010008E701000860
:1000E000E7010008E7010008E7010008E701000850
:1000F000E7010008E7010008E7010008E701000840
:10010000E7010008E7010008E7010008E70100082F
:10011000E7010008E7010008E7010008E70100081F
:10012000E7010008E7010008E7010008E70100080F
:1001300000F002F800F03AF80AA090E8000C8244BF
:100140008344AAF10107DA4501D100F02FF8AFF29C
:10015000090EBAE80F0013F0010F18BFFB1A43F0A5
:1001600001031847280A0000480A0000103A24BF7B
:1001700078C878C1FAD8520724BF30C830C144BF0C
:1001800004680C607047000000230024002500264E
:10019000103A28BF78C1FBD8520728BF30C148BFEA
:1001A0000B6070471FB51FBD10B510BD00F031F8D2
:1001B0001146FFF7F7FF00F0C3FC00F04FF803B45F
:1001C000FFF7F2FF03BC00F053F800000948804736
:1001D00009480047FEE7FEE7FEE7FEE7FEE7FEE729
:1001E000FEE7FEE7FEE7FEE704480549054A064B41
:1001F00070470000F504000831010008800000206D
:100200008006002080020020800200207047704796
:100210007047754600F028F8AE460500694653461B
:1002200020F00700854618B020B5FFF7DDFFBDE8D8
:1002300020404FF000064FF000074FF000084FF04D
:10024000000B21F00701AC46ACE8C009ACE8C009DE
:10025000ACE8C009ACE8C0098D4670470446AFF36E
:1002600000802046FFF7ABFF0048704720000020C9
:1002700001491820ABBEFEE726000200704700BF10
:10028000FEE770472DE9F0410246002500260020D8
:1002900000230024002791F803C00CF00F0591F80B
:1002A00003C00CF0100CBCF1000F03D091F802C099
:1002B0004CEA050591F800C0BCF1000F31D014687C
:1002C00000202BE04FF0010C0CFA00F3B1F800C055
:1002D0000CEA03069E4220D183004FF00F0C0CFA6B
:1002E00003F7BC4305FA03FC4CEA040491F803C08D
:1002F000BCF1280F06D14FF0010C0CFA00FCC2F83B
:1003000014C00AE091F803C0BCF1480F05D14FF0CA
:10031000010C0CFA00FCC2F810C0401C0828D1D314
:100320001460B1F800C0BCF1FF0F34DD5468002048
:100330002EE000F1080C4FF0010808FA0CF3B1F8B8
:1003400000C00CEA03069E4221D183004FF00F0C3F
:100350000CFA03F7BC4305FA03FC4CEA040491F8D9
:1003600003C0BCF1280F05D100F1080C08FA0CF805
:10037000C2F8148091F803C0BCF1480F07D100F116
:10038000080C4FF0010808FA0CF8C2F81080401C65
:100390000828CED35460BDE8F08141617047016107
:1003A000704700BFFEE700BFFEE7704770470000E0
:1003B00029B1064A92690243044B9A6104E0034A58
:1003C00092698243014B9A6170470000001002401D
:1003D000704710B500F002F810BD00000CB5002009
:1003E000019000903348006840F480303149086043
:1003F00000BF3048006800F4003000900198401CB5
:100400000190009818B90198B0F5A06FF1D1294872
:10041000006800F4003010B10120009001E00020DD
:1004200000900098012843D12348006840F0100054
:10043000214908600846006820F00300086008466B
:10044000006840F0020008601A4840681949486096
:100450000846406848600846406840F4806048604C
:100460000846406820F47C1048600846406840F424
:10047000E81048600846006840F08070086000BFDF
:100480000C48006800F000700028F9D00948406866
:1004900020F00300074948600846406840F0020029
:1004A000486000BF0348406800F00C000828F9D1FC
:1004B0000CBD00000010024000200240042808D1BA
:1004C0004FF0E021096941F004014FF0E022116191
:1004D00007E04FF0E021096921F004014FF0E0222C
:1004E0001161704710B52021014800F084F910BD5A
:1004F000002C014010B51348006840F0010011497C
:10050000086008464068104908400E49486008469F
:1005100000680E4908400B4908600846006820F44E
:10052000802008600846406820F4FE0048604FF4D0
:100530001F008860FFF74DFF4FF00060044908601E
:1005400010BD0000001002400000FFF8FFFFF6FEA3
:1005500008ED00E010B52021944800F049F99448D6
:10056000006801282DD100220821904800F022F9CE
:10057000002208218D4800F02CF9602200218B48D0
:1005800000F03BF901220021884800F013F9002215
:100590001146864800F01DF960220421834800F0CE
:1005A0002CF900220421814800F004F904221146AC
:1005B0007E4800F00EF97E480068401C7C490860C7
:1005C000F2E07B48006802282DD1602204217748A0
:1005D00000F013F900220421744800F0EBF8042223
:1005E0001146724800F0F5F8602208216F4800F0CB
:1005F00004F9012208216D4800F0DCF800220821EE
:100600006A4800F0E6F800221146684800F0D2F887
:1006100000221146654800F0DCF865480068401C7F
:1006200063490860C0E06248006803282DD1602259
:1006300008215E4800F0E1F8012208215B4800F043
:10064000B9F800220821594800F0C3F8002204211B
:10065000564800F0AFF800220421544800F0B9F8E1
:1006600060220021514800F0C8F8002211464F488E
:1006700000F0A0F8042200214C4800F0AAF84C48F1
:100680000068401C4A4908608EE049480068042818
:100690002DD100220821454800F08CF800220821C5
:1006A000424800F096F860220021404800F0A5F88A
:1006B000002211463D4800F07DF8042200213B480D
:1006C00000F087F860220421384800F096F80122F3
:1006D0000421364800F06EF800220421334800F06F
:1006E00078F833480068401C314908605CE03048C5
:1006F000006805282DD1602208212C4800F07DF8E3
:1007000000220821294800F055F804220821274832
:1007100000F05FF800221146244800F04BF8002258
:100720001146224800F055F8602204211F4800F0CD
:1007300064F8012204211D4800F03CF80022042145
:100740001A4800F046F81A480068401C184908602A
:100750002AE060220021154800F04FF80122002114
:10076000124800F027F800220421104800F031F868
:10077000602208210D4800F040F8002208210B48B3
:1007800000F018F804220821084800F022F800229E
:100790000421064800F00EF800220421034800F06E
:1007A00018F801200249086010BD0000002C01402B
:1007B0001400002030B5002301248C40A3B2048C27
:1007C0009C430484048C02FA01F5ADB22C430484EA
:1007D00030BD30B5002304248C40A3B2048C9C436C
:1007E0000484048C02FA01F5ADB22C43048430BDBC
:1007F000CA43028270478182704770B50346002069
:1008000000241846183001258D40ACB21D8CA5433C
:100810001D8409B1082909D100EB6100056825F0A4
:10082000700505600568154305600EE00D1FC5F3F2
:100830004E052844056825F4E045056005684FF637
:10084000FF7606EA02263543056070BD00BFFEE76D
:1008500010B56FF00400FFF731FE0A4800680A493E
:10086000B0FBF1F0094908700846007800EB400140
:10087000C1EBC0104FF6FF7101EAC00004490880C7
:1008800010BD00000000002000127A0018000020B7
:100890001A0000200146114A12884A434FF0E02313
:1008A0005A6100229A611A46126942F001021A61E5
:1008B00000BF4FF0E022106900F001021AB100F40D
:1008C0008032002AF5D04FF0E022126922F00102B6
:1008D0004FF0E0231A6100229A6170471A0000204D
:1008E00008B501214FF48670FFF762FD4020ADF896
:1008F000000010208DF8030003208DF802006946E7
:100900001C48FFF7BFFC4FF48070ADF800001020CA
:100910008DF8030003208DF8020069461648FFF7A2
:10092000B1FC4FF48070ADF8000010208DF803008A
:1009300003208DF8020069461048FFF7A3FC4FF42E
:100940000070ADF8000010208DF8030003208DF832
:10095000020069460948FFF795FC094800F060F875
:10096000084800F05DF8084800F05AF8074800F021
:1009700057F808BD0020014000080140000C01406C
:100980004000010000010200000103000002040019
:1009900010B504461A48844209D11A48007818B1A3
:1009A000204600F03DF802E0154800F081F81648B6
:1009B000844209D11548007818B1204600F030F87B
:1009C00002E0114800F074F81148844209D111483E
:1009D000007818B1204600F023F802E00C4800F03F
:1009E00067F80D48844209D10C48007818B12046B8
:1009F00000F016F802E0084800F05AF810BD0000B8
:100A0000400001001C000020000102001D00002029
:100A1000000103001E000020000204001F0000204F
:100A200010B50446A4F58030403850B1A0F58030B0
:100A3000C03870B1B0F5803F14D01549084418BBD8
:100A400019E040211348FFF7AAFC00201249087062
:100A50001BE04FF480711148FFF7A1FC0020104902
:100A6000087012E04FF480710E48FFF798FC0020E8
:100A70000D49087009E04FF400710A48FFF78FFC38
:100A800000200A49087000E000BF00BF10BD000050
:100A900000FFFDFF002001401C0000200008014075
:100AA0001D000020000C01401E0000201F0000203F
:100AB00010B50446A4F58030403850B1A0F5803020
:100AC000C03870B1B0F5803F14D01549084418BB48
:100AD00019E040211348FFF760FC0120124908701B
:100AE0001BE04FF480711148FFF757FC01201049BB
:100AF000087012E04FF480710E48FFF74EFC0120A1
:100B00000D49087009E04FF400710A48FFF745FCF1
:100B100001200A49087000E000BF00BF10BD0000BE
:100B200000FFFDFF002001401C00002000080140E4
:100B30001D000020000C01401E0000201F000020AE
:100B4000FFF786FEFFF7CCFE1BE00E48FFF720FF05
:100B50004FF47A70FFF79EFE0A48FFF719FF4FF433
:100B60007A70FFF797FE0848FFF712FF4FF47A708C
:100B7000FFF790FE0448FFF70BFF4FF47A70FFF782
:100B800089FEE2E74000010000010200AC0B000812
:100B900000000020200000006C010008CC0B0008C1
:100BA00020000020600600008801000800A24A041E
:100BB000000000000000000001020304060708090D
:0C0BC00001000000000000000101010124
:0400000508000131BD
:00000001FF
